:020000040800F2
:100000000002002059040008F5030008B1030008AD
:10001000050400081504000825040008000000007D
:100020000000000000000000000000009503000830
:1000300035040008000000007903000845040008AA
:1000400025010008250100082501000825010008F8
:1000500025010008250100080D0C00080D0C000802
:100060000D0C00080D0C00080D0C000825010008FF
:1000700025010008250100082501000825010008C8
:1000800025010008250100082501000825010008B8
:100090002501000825010008250100080D0C0008B5
:1000A00025010008A3160008250100089D16000878
:1000B0002501000825010008250100082501000888
:1000C0002501000825010008250100082501000878
:1000D00025010008AD080008B3080008B9080008A9
:1000E0000D0C0008711D00082501000825010008FD
:1000F0002501000800000000250100082501000876
:100100002501000825010008250100082501000837
:100110002501000825010008250100082501000827
:100120002501000800F08EB900F0A0BA7047000069
:1001300070B50C46064600F089FA094B094A1D685D
:100140002C44944202D8084A944207D20C234FF020
:10015000FF35336000F082FA284670BD1C60F9E775
:1001600000020020004001203812002019461046ED
:1001700000F088BA1946104600F08CBA13230360C9
:100180004FF0FF307047132303604FF0FF3070478C
:10019000132303604FF0FF307047002302290360F0
:1001A0008CBF002001207047134910B50C68002057
:1001B00094FAA4F18442B1FA81F108BF4FF0FF3103
:1001C0000E4C0F4B54F8211018600E4B09681A683A
:1001D000A1F1080494420ED022B110790A2804BF7C
:1001E0000B2010710A22012001F8042C31F9021CA5
:1001F000054A1C60118010BD8C020020A002002066
:10020000980200209402002090020020092930B5B5
:1002100003791AD9092B14D81A4B427900F1080432
:1002200053F822507DB12D68856053F822502C6020
:1002300043F822400123144A4479A340146823431D
:100240001360017130BD8460F2E7092BF9D90D4BC1
:10025000457953F825203AB11468A2420BBF002219
:10026000246843F825201460427953F82230002B8B
:10027000E7D10123044C03FA02F2236823EA0203C4
:100280002360DEE7A00200208C02002008B5094BA5
:100290001B681A79092A02D95B79834205D900F0D3
:1002A000E0F918B10122044B1A6008BDBDE808400E
:1002B00000F05AB8940200209802002008B500F01F
:1002C000C5F90021084B094A1B88094C1BB242F8AA
:1002D0002310084A20681368013B1360FFF796FF5C
:1002E000216000F03DF800BF90020020E0020020F5
:1002F000940200209C02002013444FF0773223F038
:10030000030310B543F8042C5A0758BF4FF0883246
:10031000044658BF43F8082CA3F1040058BFA3F1CA
:1003200008004FF0807340E902430C4B002240F874
:100330000C3C0323022440E905320123024640E934
:1003400007340B2342F8201D42F8043D013B032BE8
:10035000FAD16FF0020340F8443D10BDBD02000821
:1003600000F078F901DFFEE7024A536843F080535A
:100370005360704700ED00E0EFF3098020E9F00FD3
:1003800040F804ED02490968086000F003F8000035
:1003900094020020FFF708FF04480068016801C9C3
:1003A000B1E8F00F81F309880047000094020020B3
:1003B0000D4B0E4A0E496846904203D8984201D927
:1003C000002102E009468D460121042072460242C6
:1003D00002D1EFF3088001E0EFF309802DE9F00F7F
:1003E0006B4600F06FF800BF58010020004001206C
:1003F00000020020042008B5014900F039FD00BFCB
:10040000E4300008062008B5014900F031FD00BFC6
:10041000F0300008072008B5014900F029FD00BFB1
:1004200003310008082008B5014900F021FD00BF94
:1004300015310008092008B5014900F019FD00BF79
:10044000293100080A2008B5014900F011FD00BF5C
:100450003B3100087047704708B5FFF7FBFF6A465D
:10046000114B1249934213D3114B124A12498B423A
:1004700011D30021114B124A934211D3FFF7EBFF26
:1004800000F0E8FC01F0A4FEBDE8084000F022BD49
:1004900043F8041BE6E752F8040B43F8040BE6E7C5
:1004A00043F8041BE8E700BF00000020FEE7FEE77A
:1004B00000020020343D00088C0200208C02002045
:1004C000381200202DE9F04F8FB00A93494B924625
:1004D0009A6B044603925A6B9F6A0492DA6A8946C1
:1004E00005921A6BDB6B06920793434B1A68434BDA
:1004F0009A4202D0424801F015FFB9F1000F50D0E6
:100500000025404801F00EFF2E463F4801F00AFF4B
:1005100039463E4801F080FE05993D4801F07CFED9
:1005200006993C4801F078FE07993B4801F074FEBB
:100530003A0403D50399394801F06EFE3B0603D512
:100540000499374801F068FE364801F0EBFE514649
:10055000354801F061FEB9F1000F1DD1334801F0BB
:10056000E1FE3146324801F057FE6946314BC91A67
:1005700003D53148494201F04FFE0A9B1E462046F2
:100580008268C36801698C4641698E46AD46314632
:1005900091E8F00F4168006801BE0520274900F08E
:1005A00067FC2069D4E906680890606918F4007F48
:1005B00009902348D4E900B2D4E9023108BF04F11C
:1005C0002005CDE90C3118BF04F124050B9201F090
:1005D000A9FEDDE90B230D991A480091594601F057
:1005E0001BFEDDE908123346CDF80080164801F005
:1005F00013FE8AE700ED00E000000020FEE7FEE7C2
:10060000493100085F310008243200082D3200080B
:100610003D3200084D3200085D3200086D3200089E
:100620007D3200088D32000892320008A4320008A2
:10063000D532000858010020FD3200082A33000896
:100640008E310008A9310008E6310008EFF3108070
:1006500072B6704762B6EFF31080704780F310886F
:100660007047EFF30580C0B2704700004FF4E131EE
:100670000020024B024A00F0B9B800BF040200207B
:10068000ED1000080A460146014800F03ABD00BFDF
:100690000402002010B50C460A460146002000F076
:1006A0006DF8204610BD0000182343430D4A70B575
:1006B000D45823889A069DB209D50C2358430A4A78
:1006C000A18813181E7A12583140586890472B079A
:1006D00048BFA388054B1B681BB1BDE87040FFF7FE
:1006E00043BE70BD40330008A403002098020020E0
:1006F0002DE9F041182444431F4E0D4606EB040833
:1007000098F81470384600F075FEB0FBF5F1072933
:1007100008D83846D8F8041000F094FE6FF00100B5
:10072000BDE8F08133590F299A8922F400524FEA2B
:1007300002424FEA12429A81CAB212D89989083A03
:100740006FEA41416FEA514142F0100289B299814A
:10075000D2B21A819A89002092B242F400529A8150
:10076000DEE7988902F00F02C0F30E0098814FF681
:10077000F07008400243ECE740330008022810B54F
:1007800003D903200C4900F073FB182358430B4B8B
:100790001B589889000705D50A44914203D11A884D
:1007A0005206FCD510BD11F8010B1C882406FCD59F
:1007B00080B29880F1E700BFFE33000840330008A4
:1007C000022808B503D90320064900F051FB18227E
:1007D000054B02FB0030BDE808404168007D00F099
:1007E00019BE00BFFE3300084033000802282DE97F
:1007F000F84304468846164603D90320274900F0EB
:1008000037FB0C22182562432548DFF89C9081189D
:100810004B60FF2305FB0495EF6886500B7238464A
:10082000697C00F07FF9384600F0E4F93846E97C4D
:1008300000F0B5F94F464EB1D5F80890297C4846EE
:1008400000F070F94846A97C00F0A9F92046FFF7AE
:10085000B7FF18236343FD5807EB03090023414604
:10086000AB8120462B82AB82FFF742FF9EB199F904
:10087000153099F81520002B07DB02F01F0101222B
:100880008A4008495B0941F8232042F22C030020EA
:10089000AB81BDE8F88342F20803F8E7FE330008B5
:1008A000A403002000E100E0403300080020FFF72F
:1008B000FBBE0120FFF7F8BE0220FFF7F5BE0000E7
:1008C0007D4B01282DE9F74F187006D0022820D063
:1008D0004FF0FF3003B0BDE8F08F784B1A6842F05C
:1008E0000E021A601A6842F400721A605A6842F4E2
:1008F000E0625A60724A136943F004031361FFF720
:10090000A5FEBFF34F8F30BFFFF7A8FE00F072FCCB
:10091000DEE76A4B6B4F1A68DFF8E89122F00202BB
:100920001A601A68DFF8E08142F004021A601A685F
:10093000654E42F001021A601A68B24642F4007233
:100940001A605F4AC3461369604C43F004031361A5
:10095000FFF77CFE4B4605463A462046CDE900238C
:1009600000F078FBDDE900235949002873D1594C88
:100970000023A246DFF894B1DBF80000818911F46E
:1009800000517AD08189009321F400510904090CA7
:1009900081810421DBF80C0000F0C4F80122009BE7
:1009A00022700133032B0BF1180B04F10104E3D186
:1009B0004FF48051012000F05FFD01280FD1464B1C
:1009C0001B889A075BD40821444800F0ABF8082143
:1009D000434800F0A7F80321424800F0A3F84FF481
:1009E0008041002000F048FD01280FD13E4B1B88BC
:1009F0009B0746D408213D4800F094F808213C4864
:100A000000F090F803213B4800F08CF8BFF34F8FC3
:100A100030BF00F0EFFB2D4CDFF8B4B0204600F003
:100A200019FB80BB9AF800302BB1334A93899BB2F3
:100A300043F4005393819AF801302BB12F4A9389E4
:100A40009BB243F4005393819AF8023063BB28466B
:100A5000FFF704FE3CE7206842F8040BE06843F827
:100A6000040BA0882BF8020B208D04F580648C42C7
:100A70002AF8020B7FF471AF79E7217091E7042126
:100A8000A2E70421B7E759F8043BE36038F8023BDA
:100A9000A38057F8043B236036F8023B238504F516
:100AA00080645C45BAD1BDE7154A93899BB243F493
:100AB00000539381CBE700BF2B040020007000405F
:100AC00000ED00E0D8030020C80300200000024031
:100AD00000200240280400200030014005000240B0
:100AE0000700024006000240003800400D040240AA
:100AF0000F0402400E040240003801400044004050
:100B00000048004008040020F80300208833000853
:100B100008B5FFF79BFD0022014B1A7008BD00BF0E
:100B20002B040020F8B5431C0C4637D0012620F0DA
:100B30000F0500F00F07C0F3832006FA00F1022032
:100B400000F068FCFFF782FD03232A6807FA06FC21
:100B500003FA0CF304F0030122EA030201FA0CF198
:100B600011432960E968C4F3810221EA030102FA12
:100B70000CF20A43EA60AA88BE4092B2C4F30014A1
:100B800022EA0602BC401443A4B2AC80AA68B6B202
:100B90001343AB602E85FFF761FD0020F8BDF8B56B
:100BA000431C04460D4624D020F00F0600F00F072A
:100BB000FFF74CFD0323326879008B4022EA0302E1
:100BC00002238B401343072F33608CBF0423002381
:100BD0001E440F2304F00704316AA400A34021EA55
:100BE000030105FA04F40C433462BDE8F840FFF752
:100BF00035BDF8BD431C07D0012320F00F0200F0E3
:100C00000F0003FA00F09061704700002DE9F041F9
:100C100000254FF001080D4C0D4E67692268174002
:100C200008FA05F33B4203D06361D6E900309847E8
:100C30000135102D06F10806F2D1064B1B681BB1D9
:100C4000BDE8F041FFF790BBBDE8F0810004014032
:100C50002C04002098020020002000F0C7BC0000F7
:100C600038B5044C2568FFF7F7FF2368AB42F9D18C
:100C7000184338BDB4040020034B196819B982B277
:100C8000084600F08FBC7047AC0400202DE9F04707
:100C9000294E3268B24602F58032326032681AB9A3
:100CA000264B1A6801321A600020254B254C1A6821
:100CB0001860236884461946234FDFF880E0DFF888
:100CC0008C803A6021B1DEF800508E68AE4217D9B0
:100CD00000B12160BCF1000F10D00021CCF8001051
:100CE0003AB3C3B151685868814294BF114619465E
:100CF000084612681B6882B903603960BDE8F08756
:100D00004D68DAF8009005EA08054D45E0D18C46BB
:100D100001200968D6E71146EAE70BB90260ECE763
:100D200054685D68AC4294BF14461C46046020467B
:100D3000DFE73B60E2E700BFB4040020B00400201E
:100D4000BC040020B8040020C00400200000FFFF05
:100D50002DE9F041002965D10123334F334D3B602C
:100D60002B68CBB9FFF792FF4FF6FF74FFF774FFC4
:100D7000A042FBD000244FF000082B6883B9FFF796
:100D80006BFF1430844228D9FFF780FFFFF764FF20
:100D90008442FBD30024F0E7FFF75EFF0446EAE756
:100DA0005E68FFF759FF844205D8B3B2834202D987
:100DB0001B1A132BE3D82B685E68FFF74DFF8442A4
:100DC00002D8B6B28642F6D82B681A68C3E9018801
:100DD0002A60D3E903209047CFE72B686BB15E68A8
:100DE000FFF73EFF063E14308642C6D3002330464E
:100DF0003B60BDE8F041FFF73FBFFFF72DFF8442A6
:100E0000064602D9FFF742FFC4E700F114039BB284
:100E1000984204D9FFF720FF8642FBD9F2E74FF64C
:100E2000FF76E3E7BDE8F081AC040020C0040020B9
:100E300008B50023054A1846054900F0EBFBBDE85C
:100E400008404FF0FF30FFF717BF00BF510D0008FB
:100E500040420F0008B500F087F9BDE808400121C5
:100E60000148FFF75FBE00BF00040240704700006A
:100E700008B50C4B0C461A6872B9012203281A6097
:100E800003D17146084801F0C7F92146074801F02F
:100E9000C3F9074801F0C0F9FFF7D8FBFFF7E6FFF9
:100EA000FFF736FEC4040020D0330008D433000816
:100EB000F033000808B500F089FC034801F0ACF9F4
:100EC00000F022FC002008BD1034000808B500F036
:100ED0002BF9FCE71FB50024FFF7B8FB0D4B0F22E1
:100EE0001B684FF4807102930B4B0C4800930194E4
:100EF0000C2300F033F80A4B07221B684FF44061C3
:100F0000CDE90143074B084800930C2300F026F875
:100F1000FFF726FA18020020CD0E0008C8040020B2
:100F20001C020020B50E0008C805002038B50B795A
:100F3000092B03D903200849FFF79AFF4C7901F1E7
:100F400008020346006818B110F8035CA542F8D9FE
:100F500088601A6038BD00BFFE3300080F2A2DE9F3
:100F6000F74F05468A469046994637D810F0030356
:100F70000FBF0B46C3F10402043B5B18A3F130031F
:100F800018BFAD1823F0030319F0080F05EB030495
:100F90001AD12D6003E012600432A242FBD3019308
:100FA000FFF754FB012207462849019B51F82260B4
:100FB0000FFA82FBAEB10132212AF7D13846FFF792
:100FC0004DFB6FF08A0B3CE02A46E6E70121204604
:100FD000FFF71CF93846FFF741FB32E06FF0150BC5
:100FE0002FE041F822402A46DDE90C01A4F806B0C2
:100FF000FFF782F90E9B164AA3624FF0FF33C4E954
:101000000736136819F0010F03F101032060C4E9EA
:101010000266C4E904666562C4F82CA084F8058001
:101020002671A6611360D1D10B212046FFF7EEF89F
:1010300019F0040FCED13846FFF710FB4046FFF7FA
:1010400025F9584603B0BDE8F08F00BFE00200204C
:101050009C0200200C4B9A6A42F400429A62EFF321
:10106000138171B65A6942F480725A610278986AA3
:101070005A6922F480725A6181F3138880F4004027
:10108000C0F3C030704700BF00ED00E0F8B5054682
:101090000F46164604463C442046FFF7DBFF631B21
:1010A00008B19E42F7D81846F8BD00000C4B0D4A17
:1010B00010B59A60102200210B4C83F82220DA77B9
:1010C00060180131392980F80023F9D11A6942F0FA
:1010D00010021A615A6942F400725A6110BD00BFD1
:1010E00000ED00E00000000800E100E038B5054632
:1010F00000F0F6FA044605F1100000F089FC2046E5
:1011000038BDF8B504460D46164600F110073246C4
:101110002946204600F0D1FA00B1F8BD0121384639
:1011200000F046FCF3E7000073B50E4C2368019312
:1011300004230DEB03021E46013B995C11B9002B01
:10114000F9D11E46FFF782FA2368019A05469A42B2
:1011500002D170B2FFF7B4FB284602B0BDE8704080
:10116000FFF77CBA200200202DE9F047FFF79EFF31
:101170004FF08051002000F04DF900F03BF81A4B81
:10118000FF210220DE69002500F044F96FF0A84736
:101190004FF0FF386FF4A079F6B2AC0204F180444E
:1011A00004F5003420465FFA85FAFFF753FF50B18B
:1011B0002DB1BAF1010F14D0C4F8008000E027600F
:1011C0000135082DE9D1084B0220D96921F0FF0132
:1011D000314300F01FF900F096FABDE8F04700F047
:1011E00063B9C4F80090EBE7003802400138FDD144
:1011F00070470000774B37B51A68774D42F480721C
:101200001A609A6822F47F5222F030029A609A683B
:1012100022F0EE429A609A6822F003029A601968FE
:101220006E4A0A4000211A60D9602A68022A00F03A
:10123000AF80B2F5003F1A6842F480321A6040F085
:10124000AC8064490A682B681A42FBD0644B1A6868
:1012500042F004021A601A6842F001021A601A6829
:1012600042F002021A609A691207FCD54FF08051D1
:10127000002000F0CFF85B4B1A680092009A22F42D
:10128000C0520092009A42F400620092009A1A60E2
:101290005A68D406FCD44F4C062063680093009B28
:1012A00023F460430093009B43F440430093009B6E
:1012B0006360FFF79BFF236843F001032360A3688B
:1012C00023F47D03A360A36843F40003A3602368B1
:1012D00043F08073236023689801FCD51A20FFF740
:1012E00085FF236823F0807323603A4B1A689101CD
:1012F000FCD49A6822F47D029A602A68B2F5003F15
:101300009A680CBF42F4050242F408029A60314B1D
:101310001A6842F080721A601A689201FCD540F295
:1013200001129B6830490093009B23F00303009354
:101330002B68B3F5003F08BF1146009B43F0030341
:101340000093009A234B9A609A6802F00C020C2AD0
:10135000FAD11A6822EA01021A602449244A116269
:101360009A680092009A22F0F0020092009A00928D
:10137000009A22F4E0620092009A0092009A22F40D
:1013800060520092009A0092009A9A6003B030BDB9
:101390001A6842F001021A6053E74FF4003242F239
:1013A00010702A60019119682A6811427FF449AFD0
:1013B000019A01320192019A8242F4DD1A6842F0E8
:1013C00001021A601A6822F480321A6002232B602C
:1013D00037E700BF00380240C8110020FEFFFAEED8
:1013E000003C024000700040000101000048E8019C
:1013F000CC110020014B186A704700BFCC110020AF
:10140000024A034B1B5C106A58437047CC11002002
:101410004A340008012809D002280CD018B9084A1B
:10142000536A19435162BFF34F8F7047044A136ADE
:1014300019431162F7E7024AD3691943D161F2E710
:1014400000380240012808D002280CD080B9094A8F
:10145000536A23EA010151627047064A136A23EA7C
:10146000010111627047034AD36923EA0101D16186
:10147000704700BF00380240012809D002280AD076
:1014800060B9084B5B6A0B4214BF01200020704713
:10149000044B1B6AF7E7034BDB69F4E74FF0FF30BF
:1014A000704700BF0038024038B54FF4A0324FF407
:1014B00080614FF00050FFF7E9FD0425144C4FF414
:1014C00000224FF4806120604FF000602571FFF72B
:1014D000DDFD4FF48073A060000A4FF48042E060AD
:1014E0004FF400610B4823612575FFF7CFFD0A4BD0
:1014F00025771B68A061C3F30B03A3F21643212BCE
:101500008EBF0023054AD35C84F8243038BD00BF69
:10151000CC11002000000808002004E04C34000832
:101520002DE9F843074600241B4A0301D658DFF88B
:101530007090338AB58909EBC008ADB21D40022313
:1015400003FA04F22A420AD0B38921469BB223EA65
:101550000203B381D8F8040059F8373098470123C3
:10156000A3402B420BD0338A214623F001031B04F6
:101570001B0C3382D8F8040059F8373098470134EF
:10158000042CDCD1054B1B681BB1BDE8F843FEF70A
:10159000EBBEBDE8F88300BF70340008980200205D
:1015A000F4110020032910B51ADC0F4B040103EBE2
:1015B00000101C59436800201A4001F10C0304EB91
:1015C00083035A60238A9AB2022303FA01F109B213
:1015D00022EA01032382A389194389B2A18110BDA4
:1015E0004FF0FF30FBE700BF70340008024B0001F2
:1015F0001B58586A704700BF70340008044B000144
:101600001A5813889BB243F001031380704700BF40
:101610007034000801282DE9F84304460F4633D8FA
:101620001B4D1C4E45F8302005EBC0056B6006EBEA
:10163000001595F80C80A9684FEA00194046FFF79D
:10164000E9FE002356F8096040463380B3806B689A
:10165000F362FFF7D5FEB0FBF7F0012295F90D30EC
:10166000013880B2002B3085697BB28206DB01F045
:101670001F018A4008495B0941F823202046FFF7F3
:10168000BDFF0020BDE8F8834FF0FF30FAE700BF50
:10169000F41100207034000800E100E00020FFF7A2
:1016A0003FBF0120FFF73CBF82680168531C836085
:1016B0004368013B1340C85C7047F8B504460F46C9
:1016C000164615461DB1A268E3689A4201D1701B07
:1016D000F8BD2046FFF7E8FF013D07F8010BF1E7F1
:1016E000C26830B584684368121B9A4208D0C26849
:1016F0000468551CC5600020013B1340E15430BD17
:101700004FF0FF30FBE7704730B52A488BB000F050
:101710009BF80090284800F097F869460123019053
:1017200002AA084600F059F801A90846012303AAB5
:1017300000F053F8214800F0A3F80490204800F08E
:101740009FF80123059006AA05A904A800F045F812
:10175000012307AA03A906A800F03FF8012308AA5D
:1017600002A907A800F057F809A9089800F0AAF8FC
:101770000999144800F050FD134C099880FB04456A
:10178000E10F104841EA450100F046FD002C75F1DB
:10179000000306DA6FF00043E4184FF0000343EB58
:1017A0000505E30F43EA4501064800F035FD00203A
:1017B0000BB030BD0A47320002B04D007C64CE133E
:1017C00090F2321490340008767BC20008B5FFF71F
:1017D0002FFBBDE8084000F02BBA2DE9F0416FF077
:1017E000004C0024A34201D1BDE8F08150F82460F0
:1017F00051F8245086FB0578FD0F45EA4805EE17A1
:101800004FEAE87EB6EBE87F18BF8EEA0C0542F897
:1018100024500134E6E7F0B56FF0004C0024A342F9
:1018200000D1F0BD50F8245051F82460F717761914
:1018300047EBE5773546B7EBE67F18BF8CEAE775EF
:1018400042F824500134EAE700220C49830DC0F32A
:1018500015002DE9F043400251F82340C0F1004645
:101860004FEAE479A6FB04455F1C06FB095351F8D7
:101870002710C1FB00235800BDE8F083983400080E
:1018800010F1005348BF00F1204300200C4A990D8D
:10189000C3F315032DE9F0435B0252F82140C3F175
:1018A00000464FEAE479A6FB04454F1C06FB0951AC
:1018B00052F82720C2FB03014800BDE8F08300BFB7
:1018C000983400082DE9F84F041E0E4669DDB4FA7D
:1018D00084F56F1E17F0010816BFA81EBC40844097
:1018E000204600F0FBFB4FF0405100F089FA2F4BEF
:1018F0004FF09D41A3EB600000F082FA00F042FC43
:1019000080FB00234FEAD27A4FEA64094AEA430A8D
:1019100089FB0AAB4FEADA7343EA4B03C3F1405346
:1019200083FB0023D00F40EA4300810081FB01AB21
:101930004FEADA7242EA4B0289FB0223D00F40EAF7
:101940004300C0F1405080FB0101C20F42EA410256
:10195000930083FB03AB4FEADA7040EA4B0089FB4C
:101960000001C20F42EA4102C2F1405282FB03234E
:10197000D00F40EA4300800080FB0401C30F43EA1C
:1019800041035B00B8F1000F06D17D10002043FA3F
:1019900005F53560BDE8F88F023D05EBD5756D1096
:1019A000F4E700234FF0FF300B60F3E7DF59375FB8
:1019B00070B504460D46FEF749FE236806463BB95E
:1019C0004FF0FF332360FEF749FE0125284670BD26
:1019D000C5B10E4B02211D682846FEF717FC23688F
:1019E00001330AD105F1080323600023AB603046C0
:1019F000FEF734FEFEF7B8FCE7E729462046FFF77E
:101A000095FAF4E7FEF72AFEE0E700BF9402002013
:101A100070B50446FEF71AFE256806461DB9BDE8F6
:101A20007040FEF71BBE6B1C02D100232360F6E75B
:101A3000284650F808390B212360FEF7E7FB23689E
:101A400013B94FF0FF33236015F8034C3046FEF70F
:101A500005FE2046BDE87040FEF718BC38B5044CC2
:101A6000256800F043F92368AB42F9D1184338BD2B
:101A70000C120020044B1A6822B90449C0F30E006E
:101A800000F044B9704700BF04120020551B000845
:101A90002DE9F047294E3268B24602F50042326025
:101AA00032681AB9264B1A6801321A600020254B99
:101AB000254C1A681860236884461946234FDFF8BE
:101AC00080E0DFF88C803A6021B1DEF800508E684B
:101AD000AE4217D900B12160BCF1000F10D0002137
:101AE000CCF800103AB3C3B151685868814294BF32
:101AF00011461946084612681B6882B903603960AE
:101B0000BDE8F0874D68DAF8009005EA08054D4514
:101B1000E0D18C4601200968D6E71146EAE70BB907
:101B20000260ECE754685D68AC4294BF14461C4602
:101B300004602046DFE73B60E2E700BF0C120020B4
:101B40000812002014120020101200201812002089
:101B50000080FFFF2DE9F04100F0C8F80123324F6B
:101B6000324D3B602B68044683B14FF000082B6870
:101B7000B3B900F0BBF80330844230D9FFF788FFD7
:101B800000F0B4F88442FBD30024F0E7FFF780FFB5
:101B900047F6FF7400F0AAF8A042FBD00024E4E767
:101BA0005E6800F0A3F8844206D8C6F30E038342B1
:101BB00002D91B1A022BDCD82B685E6800F096F85D
:101BC000844203D8C6F30E068642F5D82B681A68FD
:101BD000C3E901882A60D3E903209047C7E72B684F
:101BE00063B15E68FFF73AFF03308642BFD300233C
:101BF00030463B60BDE8F041FFF73CBF00F076F8AF
:101C00008442064602D9FFF743FFBDE7C31CC3F376
:101C10000E03984204D900F069F88642FBD9F2E736
:101C200047F6FF76E3E700BF0412002018120020F9
:101C300008B500F007F8BDE808404FF0FF30FFF7A7
:101C400019BF000008B500F0C9F800F0B7F8224B42
:101C50005A6B22F440325A635A6B42F482025A633E
:101C6000CA22A3F504335A6253225A62DA6842F058
:101C70008002DA60DA685106FCD500229A60802280
:101C8000DA60164A1A619A6822F040029A609A68ED
:101C900022F400629A60DA6822F08002DA60104B67
:101CA000DA685206FCD4FF225A620E4BDA6822F43C
:101CB0000032DA609A6842F400329A601A6842F49C
:101CC00000321A605A6942F400325A614FF40072CD
:101CD000054B5A6008BD00BF00380240FF7F1F005F
:101CE000002800400004014000E100E0064BDA68F3
:101CF00022F02002DA60DA689206FCD5986A5B6806
:101D0000C0F5FF407F3070470028004010B5CA245E
:101D1000144B5C6253245C629C6824F488549C607D
:101D2000DC68E407FCD5C0F5FF40DC697F30C0F318
:101D30000E0040F0706044F08034DC6158649868B4
:101D400040F480709860986840F480509860D8683B
:101D500020F48070D8600448016004490A60FF22C2
:101D60005A6210BD00280040201200201C120020E2
:101D700010B50D4CE368DB050ED50C4B1B6813B199
:101D80000B4A10689847E3680A4A23F48073E360BB
:101D9000536943F400335361074B1B681BB1BDE823
:101DA0001040FEF7E1BA10BD0028004020120020CC
:101DB0001C1200200004014098020020024A13680F
:101DC00043F480731360704700700040024A136848
:101DD00023F48073136070470070004008B5FFF76C
:101DE000EDFF064B5A6B42F480725A635A6B9205B0
:101DF000FCD5BDE80840FFF7E9BF00BF003802404E
:101E00004FF0FF0C1CEAD0521EBF1CEAD15392EADD
:101E10000C0F93EA0C0F6FD01A4480EA010C4002B9
:101E200018BF5FEA41211ED04FF0006343EA501013
:101E300043EA5111A0FB01310CF00040B1F5000F55
:101E40003EBF490041EAD3715B0040EA010062F104
:101E50007F02FD2A1DD8B3F1004F40EBC25008BFEE
:101E600020F00100704790F0000F0CF0004C08BF0C
:101E700049024CEA502040EA51207F3AC2BFD2F1D9
:101E8000FF0340EAC250704740F400004FF00003E7
:101E9000013A5DDC12F1190FDCBF00F00040704721
:101EA000C2F10002410021FA02F1C2F1200200FA5F
:101EB00002FC5FEA310040F1000053EA4C0308BF26
:101EC00020EADC70704792F0000F00F0004C02BF77
:101ED000400010F4000F013AF9D040EA0C0093F0F2
:101EE000000F01F0004C02BF490011F4000F013B4C
:101EF000F9D041EA0C018FE70CEAD15392EA0C0FBA
:101F000018BF93EA0C0F0AD030F0004C18BF31F024
:101F1000004CD8D180EA010000F00040704790F0FA
:101F2000000F17BF90F0004F084691F0000F91F09E
:101F3000004F14D092EA0C0F01D142020FD193EA64
:101F40000C0F03D14B0218BF084608D180EA0100EC
:101F500000F0004040F0FE4040F40000704740F0C8
:101F6000FE4040F44000704780F0004002E000BFB7
:101F700081F0004142001FBF5FEA410392EA030F74
:101F80007FEA226C7FEA236C6AD04FEA1262D2EBBE
:101F90001363C1BFD218414048404140B8BF5B42C3
:101FA000192B88BF704710F0004F40F4000020F05C
:101FB0007F4018BF404211F0004F41F4000121F072
:101FC0007F4118BF494292EA030F3FD0A2F10102BC
:101FD00041FA03FC10EB0C00C3F1200301FA03F1FA
:101FE00000F0004302D5494260EB4000B0F5000F1D
:101FF00013D3B0F1807F06D340084FEA310102F1DC
:102000000102FE2A51D2B1F1004F40EBC25008BF8D
:1020100020F0010040EA03007047490040EB000057
:10202000013A28BFB0F5000FEDD2B0FA80FCACF158
:10203000080CB2EB0C0200FA0CF0AABF00EBC25085
:1020400052421843BCBFD0401843704792F0000F73
:1020500081F4000106BF80F400000132013BB5E7C6
:102060004FEA41037FEA226C18BF7FEA236C21D03C
:1020700092EA030F04D092F0000F08BF08467047A1
:1020800090EA010F1CBF0020704712F07F4F04D16F
:10209000400028BF40F00040704712F100723CBF82
:1020A00000F50000704700F0004343F0FE4040F4AC
:1020B000000070477FEA226216BF08467FEA23636A
:1020C0000146420206BF5FEA412390EA010F40F455
:1020D000800070474FF0000304E000BF10F00043A1
:1020E00048BF40425FEA000C08BF704743F0964388
:1020F00001464FF000001CE050EA010208BF7047A3
:102100004FF000030AE000BF50EA010208BF704729
:1021100011F0004302D5404261EB41015FEA010C3E
:1021200002BF84460146002043F0B64308BFA3F136
:102130008053A3F50003BCFA8CF2083AA3EBC25318
:1021400010DB01FA02FC634400FA02FCC2F1200237
:10215000BCF1004F20FA02F243EB020008BF20F06E
:102160000100704702F1200201FA02FCC2F12002D4
:1021700050EA4C0021FA02F243EB020008BF20EAC9
:10218000DC7070474FEA4002B2F1FE4F0FD34FF0C0
:102190009E03B3EB12620DD94FEA002343F00043D4
:1021A00010F0004F23FA02F018BF404270474FF082
:1021B0000000704712F1610F01D1420205D110F009
:1021C000004008BF6FF0004070474FF000007047BC
:1021D00070B500260C4D0D4C641BA410A64209D10D
:1021E000FDF7A2FF00260A4D0A4C641BA410A6426C
:1021F00005D170BD55F8043B98470136EEE755F818
:10220000043B98470136F2E7343D0008343D0008AE
:10221000343D0008343D00080FB40A4B13B51C6868
:1022200024B1A36913B9204600F05EFA05AB20463D
:10223000049AA168019300F031FC02B0BDE810409F
:1022400004B070472402002070B50E46054618B150
:1022500083690BB900F048FAAB69AC6813B928463A
:1022600000F042FA2C4B9C4220D16C68636EDB0775
:1022700005D4A389980502D4A06D00F0D3FAA389F0
:1022800019071DD52369DBB1013EA36816F8011FAC
:10229000013BA36039BB002B38DA22460A212846CD
:1022A00000F048F8013011D00A2511E01B4B9C4288
:1022B00001D1AC68DAE71A4B9C4208BFEC68D5E75D
:1022C0002146284600F088F80028DDD04FF0FF3581
:1022D000636EDA0705D4A3899B0502D4A06D00F0D4
:1022E000A2FA284670BD002B04DAA2699A4206DCE5
:1022F0000A2904D023685A1C22601970C5E72246B7
:10230000284600F017F80130BFD1DFE70A2523681F
:102310005A1C22601D70DBE7C03C0008E03C00084E
:10232000A03C0008024B01461868FFF78DBF00BFB4
:1023300024020020F8B50E461446054618B18369FC
:102340000BB900F0D1F9214B9C422BD16C68A369E9
:10235000A360A3891A072FD523696BB3236920686B
:10236000F6B2C01A63693746834204DC2146284628
:1023700000F026F930BBA3680130013BA36023685D
:102380005A1C22601E706369834204D0A389DB0754
:1023900006D50A2E04D12146284600F011F988B945
:1023A0003846F8BD0A4B9C4201D1AC68CFE7094BD7
:1023B0009C4208BFEC68CAE72146284600F00CF8AA
:1023C0000028CBD04FF0FF37EAE700BFC03C000841
:1023D000E03C0008A03C0008324B70B51D68064682
:1023E0000C4625B1AB6913B9284600F07DF92E4B98
:1023F0009C420FD16C68A389B4F90C2019072CD426
:10240000DD0611D40923336042F040034FF0FF3062
:10241000A3813EE0254B9C4201D1AC68EBE7244B05
:102420009C4208BFEC68E6E7580712D5616B41B1E2
:1024300004F14403994202D0304600F061FA0023CF
:102440006363A38923F02403A381002363602369CA
:102450002360A38943F00803A38123694BB9A389AF
:1024600003F42073B3F5007F03D02146304600F01B
:10247000FFF9A089B4F90C2010F001030AD0002361
:10248000A36063695B42A361236943B910F08000D4
:10249000BAD170BD810758BF6369A360F4E700201B
:1024A000F7E700BF24020020C03C0008E03C000821
:1024B000A03C00088A892DE9F041054610070C462A
:1024C00058D44B68002B05DC0B6C002B02DC002081
:1024D000BDE8F081E66A002EF9D0002312F48052A4
:1024E0002F682B6032D0606DA3895A0705D56368C9
:1024F000C01A636B0BB1236CC01A00230246E66A54
:102500002846216AB047431CA38906D129681D29A2
:102510002CD82A4ACA40D60728D5002262602269F0
:10252000D904226004D5421C01D12B6803B960652F
:10253000616B2F600029CAD004F14403994202D094
:10254000284600F0DDF900206063C1E7216A01231D
:102550002846B047411CC7D12B68002BC4D01D2B87
:1025600001D0162B01D12F60B1E7A38943F04003BE
:10257000A381ADE70F69002FA9D0930718BF0023EF
:102580000E6808BF4B69A6EB07080F608B60B8F1B7
:10259000000F9CDD43463A462846216AA66AB047AA
:1025A000002806DCA3894FF0FF3043F04003A381ED
:1025B0008EE70744A8EB0008E9E700BF01004020D0
:1025C00038B50B6905460C4613B90025284638BDB9
:1025D00018B183690BB900F087F8144B9C421BD1EA
:1025E0006C68B4F90C30002BEFD0626ED00704D4C5
:1025F000990502D4A06D00F015F928462146FFF791
:1026000059FF636E0546DA07E0D4A3899B05DDD444
:10261000A06D00F008F9D9E7054B9C4201D1AC68E8
:10262000DFE7044B9C4208BFEC68DAE7C03C0008D7
:10263000E03C0008A03C0008002310B50446C0E9B7
:102640000033C0E90433836081814366C2818361C2
:10265000194608225C3000F04BF9054B2462636296
:10266000044BA362044BE362044B236310BD00BF21
:10267000293000084B30000883300008A7300008DC
:10268000014900F0AFB800BFC125000870B568254A
:102690004A1E55430E4605F1740100F07DF90446CB
:1026A00040B10021C0E900160C30A06005F16802BD
:1026B00000F01EF9204670BD014800F0B3B800BF1D
:1026C00034120020014800F0AEB800BF34120020E0
:1026D000014800F0A7B800BF2F120020014800F009
:1026E000A2B800BF2F12002010B50446FFF7F0FF7C
:1026F000A3691BB1BDE81040FFF7F0BFC4E9123376
:102700002365134B134A1B68A262A34208BF01232F
:10271000204608BFA36100F01FF86060204600F06B
:102720001BF8A060204600F017F800220421E060AA
:102730006068FFF781FF01220921A068FFF77CFF95
:1027400002221221E068FFF777FF0123A361D1E79E
:102750009C3C000881260008F8B50746FFF7ACFF4F
:102760001E4B1E68B36913B93046FFF7BDFF4836EC
:10277000D6E90134013B03D533680BB33668F7E77C
:10278000B4F90C50D5B9164B04F15800E3606566F6
:1027900000F047F8FFF796FF08222946C4E90155E3
:1027A000C4E904552560A56104F15C0000F0A0F8BF
:1027B000C4E90D55C4E912552046F8BD6834D9E77F
:1027C00004213846FFF762FF044630600028D5D167
:1027D000FFF778FF0C233B60EEE700BF9C3C00084E
:1027E0000100FFFF2DE9F84306468846002700F167
:1027F0004804D4E90195B9F1010905D52468002CF4
:10280000F7D13846BDE8F883AB89012B07D9B5F974
:102810000E30013303D029463046C04707436835A0
:10282000E9E770477047704770B50E46B1F90E1072
:10283000144600291D4696B007DA00232B60B389A1
:102840001A0610D44FF480630EE06A46FDF7A0FC30
:102850000028F2DB019A02F47042A2F500535A42BA
:102860005A412A60EEE740230020236016B070BD75
:102870008B8973B59D0706460C4607D504F14703BF
:10288000236023610123636102B070BD6A4601AB1E
:10289000FFF7CAFF00990546304600F07DF848B9B9
:1028A000B4F90C309A05EFD423F0030343F002038C
:1028B000A381E3E70D4BB362A389206043F080035B
:1028C000A381009B20616361019B5BB13046B4F939
:1028D0000E10FDF762FC28B1A38923F0030343F037
:1028E0000103A381A0890543A581CDE781260008C6
:1028F00003460244934200D1704703F8011BF9E7F5
:1029000038B50546002943D051F8043C0C1F002B74
:10291000B8BFE41800F0DAFB1E4A1368104633B95A
:10292000636014602846BDE8384000F0D5BBA34280
:102930000AD921686218934201BF1A685B6852186D
:10294000226063600460EDE71A465B680BB1A34246
:10295000FAD911685018A0420BD1206801445018D0
:1029600083421160DED118685B68014411605360D6
:10297000D8E702D90C232B60D4E7206821188B42BA
:1029800001BF19685B680918216063605460C9E77A
:1029900038BD00BF24120020F8B5CD1C25F003057A
:1029A00008350C2D38BF0C25002D064601DBA94249
:1029B00003D90C2333600020F8BD00F087FB2149C8
:1029C0000A6814469CB9204F3B6823B9214630461B
:1029D000FDF7AEFB386029463046FDF7A9FB431CE6
:1029E00023D10C233046336000F076FBE3E7236805
:1029F0005B1B17D40B2B03D923601C44256004E018
:102A00006368A2420CBF0B605360304600F064FB69
:102A100004F10B00231D20F00700C21ACCD01B1AB2
:102A2000A350C9E722466468CCE7C41C24F0030421
:102A3000A042E3D0211A3046FDF77AFB0130DDD108
:102A4000CFE700BF2412002028120020936810B4A2
:102A5000013B002B936007DA9469A34201DB0A294A
:102A600002D110BCFFF766BC1368581C10601970C7
:102A7000084610BC7047F8B506460F461446D518F0
:102A8000AC4201D1002007E03A46304614F8011B61
:102A9000FFF7DCFF431CF3D1F8BD00002DE9F04F38
:102AA0000D461446984606469DB018B183690BB989
:102AB000FFF71AFE894B9D421BD175686B6ED907D3
:102AC00005D4AB899A0502D4A86DFFF7ABFEAB899C
:102AD0001B0701D52B69EBB929463046FFF77CFC73
:102AE000C0B16B6EDC070ED54FF0FF301DB0BDE8F6
:102AF000F08F7B4B9D4201D1B568DFE7794B9D425A
:102B000008BFF568DAE7AB899805EDD4A86DFFF743
:102B10008AFEE9E70023099320238DF8293030232A
:102B20004FF00109CDF80C80DFF8BC818DF82A3018
:102B300023469A4613F8012B0AB1252AF9D1BAEB9C
:102B4000040B0BD05B46224629463046FFF793FF25
:102B5000013000F0AA80099A5A4409929AF800308C
:102B6000002B00F0A28000234FF0FF32CDE90523B7
:102B70000AF1010A049307938DF853301A935446CF
:102B8000052214F8011B584800F091FA049AD8B9AC
:102B9000D10644BF20238DF85330130744BF2B23A5
:102BA0008DF853309AF800302A2B15D05446002067
:102BB0004FF00A0C079A214611F8013B303B092BD4
:102BC0004ED9B0B1079214E0A0EB080309FA03F361
:102BD0001343A2460493D2E7039B191D1B6803917C
:102BE000002BBBBF5B4242F0020207930793B8BFC2
:102BF000049223782E2B0CD163782A2B35D1039B9A
:102C000002341A1D1B680392002BB8BF4FF0FF332C
:102C10000593DFF8E4A003225046217800F047FA3C
:102C200040B14023A0EB0A0003FA00F0049B0134FA
:102C30000343049314F8011B06222C488DF8281036
:102C400000F035FA00283FD0294B1BBB039B07330C
:102C500023F0070308330393099B3B44099367E779
:102C60000C4601200CFB0232A5E700234FF00A0CB2
:102C7000194601340593204610F8012B303A092AF1
:102C800003D9002BC5D00591C3E7044601230CFBF3
:102C90000121F0E703AB00932A463046154B04A907
:102CA000AFF300800746781CD6D16B6ED90705D4E8
:102CB000AB899A0502D4A86DFFF7B5FDAB895B0619
:102CC0003FF512AF099811E703AB00932A4630464F
:102CD000084B04A900F082F8E4E700BFC03C0008FC
:102CE000E03C0008A03C0008003D00080A3D000848
:102CF00000000000772A0008063D00082DE9F04793
:102D0000164699468A680B6907469342B8BF134630
:102D1000336091F843200C46DDF820800AB101337E
:102D200033602368990642BF3368023333602568F5
:102D300015F0060506D104F1190AE36832689B1AFA
:102D4000AB4228DC94F84320131E226818BF0123ED
:102D500092062DD44946384604F14302C04701305B
:102D600020D02368E56803F00603042B18BF002574
:102D700032684FF00006A36808BFAD1A226908BF89
:102D800025EAE5759342C4BF9B1AED181A34B54283
:102D90001AD1002008E00123524649463846C04770
:102DA000013003D14FF0FF30BDE8F0870135C4E7B3
:102DB0003020E11881F843005A1C94F84510224451
:102DC000023382F84310C5E70123224649463846BC
:102DD000C0470130E6D00136D9E700002DE9FF47B2
:102DE0000C46277E9146782F80469A460C9904F12E
:102DF000430207D8622F0AD8002F00F0D980582F3D
:102E000000F0A48004F1420684F842703AE0A7F191
:102E10006303152BF6D801A050F823F0752E000897
:102E2000892E0008052E0008052E0008052E000832
:102E3000052E0008892E0008052E0008052E000822
:102E4000052E0008052E0008972F0008B92E00084F
:102E5000792F0008052E0008052E0008B92F00085C
:102E6000052E0008B92E0008052E0008052E0008C2
:102E7000812F00080B6804F142061A1D1B680A60C6
:102E800084F842300123A4E0256808682E0600F18A
:102E900004030AD505680B60002D03DA2D236D426B
:102EA00084F843300A235E4819E015F0400F0568A6
:102EB0000B6018BF2DB2EFE70B682568181D08607E
:102EC000280601D51D6802E06906FBD51D886F2F15
:102ED0000CBF08230A235248002184F84310666877
:102EE000002EA8BF2168A660A4BF21F004012160C4
:102EF0000DB9002E4DD01646B5FBF3F103FB11576B
:102F0000C75D06F8017D2F46BB420D46F4D9082B5C
:102F10000BD12368DF0708D5236961689942DEBFBA
:102F2000302306F8013C06F1FF36921B22614B4626
:102F300021464046CDF800A003AAFFF7DFFE01308E
:102F40004CD14FF0FF3004B0BDE8F087344884F82E
:102F500045700E68236856F8045B1F060E6014D592
:102F6000D90744BF43F0200323601DB9236823F031
:102F7000200323601023AFE7236843F0200323607E
:102F80007823284884F84530E3E75E0648BFADB2B1
:102F9000E6E71646BBE70B6826681D1D60690D60F5
:102FA00035061B6801D5186002E07106FBD5188054
:102FB000002316462361BAE70B681A1D0A601E68D3
:102FC00000213046626800F072F808B1801B606032
:102FD00063682361002384F84330A8E732464946FA
:102FE00040462369D0470130ABD023689B0713D4F8
:102FF000E068039B9842B8BF1846A4E70123324615
:1030000049464046D04701309BD00135E3680399DB
:103010005B1AAB42F2DCEBE7002504F11906F5E799
:10302000113D0008223D000810B50C46B1F90E1004
:10303000FDF79CF80028ABBF636DA3891B1823F430
:103040008053ACBF6365A38110BD2DE9F0411F46DD
:103050008B890546DB050C46164605D50223002262
:10306000B1F90E10FDF78FF8A389324623F480538F
:10307000A38128463B46B4F90E10BDE8F041FDF7A8
:1030800079B810B50C46B1F90E10FDF77CF8431C69
:10309000A38915BF606523F4805343F48053A38153
:1030A00018BFA38110BDB1F90E10FDF767B8034634
:1030B00010B5C9B202449342184601D1002003E082
:1030C000047801338C42F6D110BD00000148FFF7AF
:1030D000A9BB00BF301200200148FFF7A4BB00BF0E
:1030E000301200204E4D492048414E444C4552007C
:1030F0004D454D204D414E4147452048414E444CA1
:10310000455200425553204641554C542048414EAB
:10311000444C4552005553414745204641554C5477
:103120002048414E444C4552004445425547204DAD
:103130004F4E2048414E444C45520044554D4D5948
:103140002048414E444C4552000A49535220737462
:1031500061636B206F766572666C6F776564005390
:103160007461636B20706F696E74657220636F7237
:103170007275707465642C20726573657420746F49
:1031800020746F70206F6620737461636B000A4354
:103190006F6E74657874206265666F726520686111
:1031A00072646661756C743A0020202072303A2097
:1031B00030782530386C780A20202072313A20305F
:1031C000782530386C780A20202072323A20307806
:1031D0002530386C780A20202072333A2030782548
:1031E00030386C780A0020207231323A203078254D
:1031F00030386C780A2020206C723A2030782530E4
:10320000386C780A20202070633A203078253038D6
:103210006C780A20207073723A2030782530386C30
:10322000780A0A004653522F4641523A002043463C
:1032300053523A2030782530386C780A00204846BE
:1032400053523A2030782530386C780A00204446B2
:1032500053523A2030782530386C780A00204146A5
:1032600053523A2030782530386C780A0020424694
:1032700041523A2030782530386C780A004D4D465E
:1032800041523A2030782530386C780A004D697305
:1032900063004558435F5245543A20307825303812
:1032A0006C780A00417474656D7074696E6720747F
:1032B0006F207265636F6E737472756374207374BC
:1032C00061746520666F7220646562756767696EF8
:1032D000672E2E2E00496E204744423A0A20207362
:1032E0006574202470633D3078256C780A20206650
:1032F00072616D6520300A202062740A000A495309
:103300005220737461636B206F766572666C6F77A1
:103310006564206279206174206C65617374202576
:10332000642062797465732E0A0048415244204635
:1033300041554C542048414E444C45520000000039
:1033400000380140004000000A000240090002402D
:1033500004010707012500000044004000000200AE
:10336000030002400200024004010707002600009B
:1033700000480040000004000B0402400A04024020
:10338000040107070027000000380140004000004A
:103390000A0002400900024004010707012500005D
:1033A000004400400000020003000240020002400E
:1033B0000401070700260000004800400000040048
:1033C0000B0402400A040240040107070027000022
:1033D00025700A002A2A2A2052494F54206B657210
:1033E0006E656C2070616E69633A0A25730A0A0083
:1033F0002A2A2A2068616C7465642E0A0A004641F4
:10340000494C454420415353455254494F4E2E0098
:103410006D61696E28293A205468697320697320A8
:1034200052494F5421202856657273696F6E3A20B5
:10343000323031392E30312E554E574453290A003F
:1034400069646C65006D61696E0001010100000036
:103450000000000000000000000000000003000267
:103460000000000000000000000000000405000053
:1034700000100140FFFF000010000000011B0000D1
:1034800000080140FFFF00000400000001190000D7
:10349000256C640A0000000000000000201D92015D
:1034A000BF2A24035D19B6047CD947069E5BD90761
:1034B00049906A090568FB0A5ED38B0CE4C21B0EB7
:1034C0002B27AB0FCFF039116F10C812B1765514FE
:1034D0004514E215DED96D173CB8F81826A0821AFB
:1034E0006A820B1CE54F931D7BF9191F1C709F20EE
:1034F000C5A423227F88A6235E0C28258621A82622
:1035000028B9262885C4A329EB341F2BBAFB982C95
:10351000620A112E6252872F4DC5FB30C7546E329E
:1035200087F2DE3357904D351420BA36B0932438E5
:1035300032DD8C39B7EEF23A70BA563CA632B83D5D
:10354000B849173F1DF27340651ECE4135C1254372
:1035500050CD7A448F35CD45E7EC1C4765E6694888
:103560003315B449986CFB4AF4DF3F4CC462814D7B
:10357000A5E8BF4E4D65FB4F94CC33516E12695296
:10358000F02A9B534B0ACA54D2A4F555FAEE1D57A4
:1035900054DD4258986464599A79825A54119D5B5B
:1035A000E020B45C7C9DC75D8A7CD75E8DB3E35F11
:1035B0003038EC603F00F161AC01F2629032EF63B1
:1035C0002689E864D3FBDD652081CF66BD0FBD672A
:1035D000819EA6686C248C69A4986D6A79F24A6B06
:1035E0006029246CFC34F96C140DCA6D9DA9966E8B
:1035F000B2025F6F9A102370C6CBE270D22C9E711C
:10360000852C5572D0C30773D1EBB573D19D5F7410
:1036100045D30475CF85A5753DAF41768949D976E7
:10362000DB4E6C7789B9FA77148484782DA90979EF
:10363000B1238A79ADEE057A5B057D7A2363EF7A53
:103640009E035D7B90E2C57BEEFB297CDE4B897C93
:10365000B2CEE37CEC80397D405F8A7D8F66D67D7B
:10366000EA931D7E93E45F7EFC559D7EC6E5D57E84
:10367000C491097FF657387F8F36627FF32B877F9F
:10368000B436A77F9655C27F8E87D87FC0CBE97F9F
:103690008221F67F5A88FD7FFFFFFF7F5A88FD7FDA
:1036A0008221F67FC0CBE97F8E87D87F9655C27F77
:1036B000B436A77FF32B877F8F36627FF657387F2C
:1036C000C491097FC6E5D57EFC559D7E93E45F7E5F
:1036D000EA931D7E8F66D67D405F8A7DEC80397DC2
:1036E000B2CEE37CDE4B897CEEFB297C90E2C57B8D
:1036F0009E035D7B2363EF7A5B057D7AADEE057AF1
:10370000B1238A792DA909791484847889B9FA7743
:10371000DB4E6C778949D9763DAF4176CF85A5756B
:1037200045D30475D19D5F74D1EBB573D0C30773D6
:10373000852C5572D22C9E71C6CBE2709A102370E4
:10374000B2025F6F9DA9966E140DCA6DFC34F96CC0
:103750006029246C79F24A6BA4986D6A6C248C6998
:10376000819EA668BD0FBD672081CF66D3FBDD6556
:103770002689E8649032EF63AC01F2623F00F161A8
:103780003038EC608DB3E35F8A7CD75E7C9DC75D8B
:10379000E020B45C54119D5B9A79825A9864645914
:1037A00054DD4258FAEE1D57D2A4F5554B0ACA54BF
:1037B000F02A9B536E12695294CC33514D65FB4FE6
:1037C000A5E8BF4EC462814DF4DF3F4C986CFB4AC4
:1037D0003315B44965E66948E7EC1C478F35CD459C
:1037E00050CD7A4435C12543651ECE411DF273404C
:1037F000B849173FA632B83D70BA563CB7EEF23A18
:1038000032DD8C39B09324381420BA3657904D35B8
:1038100087F2DE33C7546E324DC5FB306252872FBC
:10382000620A112EBAFB982CEB341F2B85C4A329F6
:1038300028B926288621A8265E0C28257F88A6235D
:10384000C5A423221C709F207BF9191FE54F931DEF
:103850006A820B1C26A0821A3CB8F818DED96D17B4
:103860004514E215B17655146F10C812CFF0391116
:103870002B27AB0FE4C21B0E5ED38B0C0568FB0A33
:1038800049906A099E5BD9077CD947065D19B60441
:10389000BF2A2403201D920100000000E0E26DFE1B
:1038A00041D5DBFCA3E649FB8426B8F962A426F8DF
:1038B000B76F95F6FB9704F5A22C74F31C3DE4F169
:1038C000D5D854F0310FC6EE91EF37ED4F89AAEB02
:1038D000BBEB1DEA222692E8C44707E7DA5F7DE5E5
:1038E000967DF4E31BB06CE28506E6E0E48F60DFD2
:1038F0003B5BDCDD817759DCA2F3D7DA7ADE57D97E
:10390000D846D9D77B3B5CD615CBE0D4460467D3E9
:103910009EF5EED19EAD78D0B33A04CF39AB91CDC0
:10392000790D21CCA96FB2CAECDF45C9506CDBC759
:10393000CE2273C649110DC59045A9C35ACD47C2C1
:1039400048B6E8C0E30D8CBF9BE131BECB3EDABC8C
:10395000B03285BB71CA32BA1913E3B89B1996B756
:10396000CDEA4BB6689304B50C20C0B33C9D7EB243
:103970005B1740B1B39A04B06C33CCAE92ED96AD08
:1039800010D564ACB5F535AB2E5B0AAA0611E2A8DA
:10399000AC22BDA7689B9BA666867DA5ACEE62A403
:1039A00020DF4BA3846238A2768328A1734C1CA02D
:1039B000D0C7139FC1FF0E9E54FE0D9D70CD109C6D
:1039C000DA76179B2D04229AE07E309943F04298D4
:1039D0007F61599794DB73965C679295870DB594D8
:1039E000A0D6DB9304CB0693ECF235926356699133
:1039F0004EFDA09066EFDC8F3A341D8F2ED3618E82
:103A00007BD3AA8D303CF88C2F144A8C2F62A08B6C
:103A1000BB2CFB8A317A5A8AC350BE8977B6268975
:103A200025B1938877460588EC7B7B87D356F6864D
:103A30004FDC75865311FA85A5FA8285DD9C1085C9
:103A400062FCA284701D3A841204D68322B4768369
:103A50004E311C83147FC682C0A075827199298261
:103A6000166CE2816D1BA08104AA62813A1A2A8138
:103A70003C6EF6800AA8C78071C99D800DD47880FD
:103A80004CC958806AAA3D807278278040341680DD
:103A90007EDE0980A677028000000080A677028083
:103AA0007EDE098040341680727827806AAA3D80C5
:103AB0004CC958800DD4788071C99D800AA8C780F0
:103AC0003C6EF6803A1A2A8104AA62816D1BA0819D
:103AD000166CE28171992982C0A07582147FC6821A
:103AE0004E311C8322B476831204D683701D3A842F
:103AF00062FCA284DD9C1085A5FA82855311FA85AB
:103B00004FDC7586D356F686EC7B7B877746058837
:103B100025B1938877B62689C350BE89317A5A8AEF
:103B2000BB2CFB8A2F62A08B2F144A8C303CF88C64
:103B30007BD3AA8D2ED3618E3A341D8F66EFDC8F36
:103B40004EFDA09063566991ECF2359204CB06933A
:103B5000A0D6DB93870DB5945C67929594DB739642
:103B60007F61599743F04298E07E30992D04229A64
:103B7000DA76179B70CD109C54FE0D9DC1FF0E9EF2
:103B8000D0C7139F734C1CA0768328A1846238A2EF
:103B900020DF4BA3ACEE62A466867DA5689B9BA646
:103BA000AC22BDA70611E2A82E5B0AAAB5F535AB7B
:103BB00010D564AC92ED96AD6C33CCAEB39A04B034
:103BC0005B1740B13C9D7EB20C20C0B3689304B536
:103BD000CDEA4BB69B1996B71913E3B871CA32BA3E
:103BE000B03285BBCB3EDABC9BE131BEE30D8CBF6E
:103BF00048B6E8C05ACD47C29045A9C349110DC582
:103C0000CE2273C6506CDBC7ECDF45C9A96FB2CAC0
:103C1000790D21CC39AB91CDB33A04CF9EAD78D09C
:103C20009EF5EED1460467D315CBE0D47B3B5CD642
:103C3000D846D9D77ADE57D9A2F3D7DA817759DCBB
:103C40003B5BDCDDE48F60DF8506E6E01BB06CE209
:103C5000967DF4E3DA5F7DE5C44707E7222692E824
:103C6000BBEB1DEA4F89AAEB91EF37ED310FC6EEA2
:103C7000D5D854F01C3DE4F1A22C74F3FB9704F565
:103C8000B76F95F662A426F88426B8F9A3E649FB37
:103C900041D5DBFCE0E26DFE0000000028020020C0
:103CA0000000000000000000000000000000000014
:103CB0000000000000000000000000000000000004
:103CC00000000000000000000000000000000000F4
:103CD00000000000000000000000000000000000E4
:103CE00000000000000000000000000000000000D4
:103CF00000000000000000000000000000000000C4
:103D0000232D302B2000686C4C00656667454647C4
:103D10000030313233343536373839414243444547
:103D200046003031323334353637383961626364B6
:043D300065660000C4
:103D34003C1200206403002040000000000000004A
:103D44000000000000000000403400084534000872
:103D5400010101012802002000000000C03C00080D
:103D6400E03C0008A03C0008000000000000000047
:103D7400000000000000000000000000000000003F
:103D8400000000000000000000000000000000002F
:103D9400000000000000000000000000000000001F
:103DA400000000000000000000000000000000000F
:0C3DB400000000000000000028210000BA
:040000050800045992
:00000001FF
